{
  "contractName": "Welandam",
  "abi": [
    {
      "constant": false,
      "inputs": [],
      "name": "renounceOwnership",
      "outputs": [],
      "payable": false,
      "stateMutability": "nonpayable",
      "type": "function"
    },
    {
      "constant": true,
      "inputs": [],
      "name": "owner",
      "outputs": [
        {
          "name": "",
          "type": "address"
        }
      ],
      "payable": false,
      "stateMutability": "view",
      "type": "function"
    },
    {
      "constant": true,
      "inputs": [
        {
          "name": "",
          "type": "bytes16"
        }
      ],
      "name": "orders",
      "outputs": [
        {
          "name": "id",
          "type": "bytes16"
        },
        {
          "name": "itemId",
          "type": "bytes16"
        },
        {
          "name": "amount",
          "type": "uint64"
        },
        {
          "name": "shipper",
          "type": "address"
        },
        {
          "name": "merchant",
          "type": "address"
        },
        {
          "name": "customer",
          "type": "address"
        },
        {
          "name": "expirationBlock",
          "type": "uint256"
        },
        {
          "name": "status",
          "type": "uint8"
        }
      ],
      "payable": false,
      "stateMutability": "view",
      "type": "function"
    },
    {
      "constant": false,
      "inputs": [
        {
          "name": "_newOwner",
          "type": "address"
        }
      ],
      "name": "transferOwnership",
      "outputs": [],
      "payable": false,
      "stateMutability": "nonpayable",
      "type": "function"
    },
    {
      "inputs": [],
      "payable": false,
      "stateMutability": "nonpayable",
      "type": "constructor"
    },
    {
      "anonymous": false,
      "inputs": [
        {
          "indexed": false,
          "name": "id",
          "type": "bytes16"
        },
        {
          "indexed": false,
          "name": "itemId",
          "type": "bytes16"
        },
        {
          "indexed": false,
          "name": "amount",
          "type": "uint64"
        }
      ],
      "name": "OrderRecorded",
      "type": "event"
    },
    {
      "anonymous": false,
      "inputs": [
        {
          "indexed": true,
          "name": "previousOwner",
          "type": "address"
        }
      ],
      "name": "OwnershipRenounced",
      "type": "event"
    },
    {
      "anonymous": false,
      "inputs": [
        {
          "indexed": true,
          "name": "previousOwner",
          "type": "address"
        },
        {
          "indexed": true,
          "name": "newOwner",
          "type": "address"
        }
      ],
      "name": "OwnershipTransferred",
      "type": "event"
    },
    {
      "constant": true,
      "inputs": [
        {
          "name": "_id",
          "type": "bytes16"
        }
      ],
      "name": "getRelayersPerOrderId",
      "outputs": [
        {
          "name": "",
          "type": "address[]"
        }
      ],
      "payable": false,
      "stateMutability": "view",
      "type": "function"
    },
    {
      "constant": false,
      "inputs": [
        {
          "name": "_id",
          "type": "bytes16"
        },
        {
          "name": "_itemId",
          "type": "bytes16"
        },
        {
          "name": "_amount",
          "type": "uint64"
        },
        {
          "name": "_relayers",
          "type": "address[]"
        },
        {
          "name": "_shipper",
          "type": "address"
        },
        {
          "name": "_merchant",
          "type": "address"
        },
        {
          "name": "_customer",
          "type": "address"
        },
        {
          "name": "_maxBlocks",
          "type": "uint256"
        }
      ],
      "name": "recordOrder",
      "outputs": [],
      "payable": true,
      "stateMutability": "payable",
      "type": "function"
    },
    {
      "constant": false,
      "inputs": [
        {
          "name": "_id",
          "type": "bytes16"
        }
      ],
      "name": "confirmOrder",
      "outputs": [],
      "payable": false,
      "stateMutability": "nonpayable",
      "type": "function"
    },
    {
      "constant": false,
      "inputs": [
        {
          "name": "_id",
          "type": "bytes16"
        }
      ],
      "name": "unlockFundsForOrder",
      "outputs": [],
      "payable": false,
      "stateMutability": "nonpayable",
      "type": "function"
    },
    {
      "constant": false,
      "inputs": [
        {
          "name": "_id",
          "type": "bytes16"
        }
      ],
      "name": "checkLockedOrder",
      "outputs": [],
      "payable": false,
      "stateMutability": "nonpayable",
      "type": "function"
    }
  ],
  "bytecode": "0x608060405234801561001057600080fd5b50336000806101000a81548173ffffffffffffffffffffffffffffffffffffffff021916908373ffffffffffffffffffffffffffffffffffffffff160217905550336000806101000a81548173ffffffffffffffffffffffffffffffffffffffff021916908373ffffffffffffffffffffffffffffffffffffffff1602179055506119b3806100a06000396000f300608060405260043610610099576000357c0100000000000000000000000000000000000000000000000000000000900463ffffffff16806302e7d06a1461009e578063441e6ca714610133578063547e1e3d14610244578063715018a6146102845780638da5cb5b1461029b578063ab27d755146102f2578063bf4d801a14610332578063c5c7312414610372578063f2fde38b146104e1575b600080fd5b3480156100aa57600080fd5b506100dc60048036038101908080356fffffffffffffffffffffffffffffffff19169060200190929190505050610524565b6040518080602001828103825283818151815260200191508051906020019060200280838360005b8381101561011f578082015181840152602081019050610104565b505050509050019250505060405180910390f35b61024260048036038101908080356fffffffffffffffffffffffffffffffff1916906020019092919080356fffffffffffffffffffffffffffffffff19169060200190929190803567ffffffffffffffff16906020019092919080359060200190820180359060200190808060200260200160405190810160405280939291908181526020018383602002808284378201915050505050509192919290803573ffffffffffffffffffffffffffffffffffffffff169060200190929190803573ffffffffffffffffffffffffffffffffffffffff169060200190929190803573ffffffffffffffffffffffffffffffffffffffff169060200190929190803590602001909291905050506105ee565b005b34801561025057600080fd5b5061028260048036038101908080356fffffffffffffffffffffffffffffffff19169060200190929190505050610a09565b005b34801561029057600080fd5b50610299611024565b005b3480156102a757600080fd5b506102b0611126565b604051808273ffffffffffffffffffffffffffffffffffffffff1673ffffffffffffffffffffffffffffffffffffffff16815260200191505060405180910390f35b3480156102fe57600080fd5b5061033060048036038101908080356fffffffffffffffffffffffffffffffff1916906020019092919050505061114b565b005b34801561033e57600080fd5b5061037060048036038101908080356fffffffffffffffffffffffffffffffff1916906020019092919050505061127e565b005b34801561037e57600080fd5b506103b060048036038101908080356fffffffffffffffffffffffffffffffff19169060200190929190505050611656565b60405180896fffffffffffffffffffffffffffffffff19166fffffffffffffffffffffffffffffffff19168152602001886fffffffffffffffffffffffffffffffff19166fffffffffffffffffffffffffffffffff191681526020018767ffffffffffffffff1667ffffffffffffffff1681526020018673ffffffffffffffffffffffffffffffffffffffff1673ffffffffffffffffffffffffffffffffffffffff1681526020018573ffffffffffffffffffffffffffffffffffffffff1673ffffffffffffffffffffffffffffffffffffffff1681526020018473ffffffffffffffffffffffffffffffffffffffff1673ffffffffffffffffffffffffffffffffffffffff1681526020018381526020018260ff1660ff1681526020019850505050505050505060405180910390f35b3480156104ed57600080fd5b50610522600480360381019080803573ffffffffffffffffffffffffffffffffffffffff169060200190929190505050611759565b005b606060016000836fffffffffffffffffffffffffffffffff19166fffffffffffffffffffffffffffffffff191681526020019081526020016000206002018054806020026020016040519081016040528092919081815260200182805480156105e257602002820191906000526020600020905b8160009054906101000a900473ffffffffffffffffffffffffffffffffffffffff1673ffffffffffffffffffffffffffffffffffffffff1681526020019060010190808311610598575b50505050509050919050565b600070010000000000000000000000000000000002600160008a6fffffffffffffffffffffffffffffffff19166fffffffffffffffffffffffffffffffff1916815260200190815260200160002060000160009054906101000a9004700100000000000000000000000000000000026fffffffffffffffffffffffffffffffff191614151561067c57600080fd5b348667ffffffffffffffff1614151561069457600080fd5b61012060405190810160405280896fffffffffffffffffffffffffffffffff19168152602001886fffffffffffffffffffffffffffffffff191681526020018767ffffffffffffffff1681526020018681526020018573ffffffffffffffffffffffffffffffffffffffff1681526020018473ffffffffffffffffffffffffffffffffffffffff1681526020018373ffffffffffffffffffffffffffffffffffffffff1681526020018243018152602001600160ff16815250600160008a6fffffffffffffffffffffffffffffffff19166fffffffffffffffffffffffffffffffff1916815260200190815260200160002060008201518160000160006101000a8154816fffffffffffffffffffffffffffffffff02191690837001000000000000000000000000000000009004021790555060208201518160000160106101000a8154816fffffffffffffffffffffffffffffffff02191690837001000000000000000000000000000000009004021790555060408201518160010160006101000a81548167ffffffffffffffff021916908367ffffffffffffffff16021790555060608201518160020190805190602001906108539291906118ba565b5060808201518160030160006101000a81548173ffffffffffffffffffffffffffffffffffffffff021916908373ffffffffffffffffffffffffffffffffffffffff16021790555060a08201518160040160006101000a81548173ffffffffffffffffffffffffffffffffffffffff021916908373ffffffffffffffffffffffffffffffffffffffff16021790555060c08201518160050160006101000a81548173ffffffffffffffffffffffffffffffffffffffff021916908373ffffffffffffffffffffffffffffffffffffffff16021790555060e082015181600601556101008201518160070160006101000a81548160ff021916908360ff1602179055509050507fe30266b01cfd3418859f2d2f8b6831c9745e84f8734eba3e8092fbee2b8bfd9688888860405180846fffffffffffffffffffffffffffffffff19166fffffffffffffffffffffffffffffffff19168152602001836fffffffffffffffffffffffffffffffff19166fffffffffffffffffffffffffffffffff191681526020018267ffffffffffffffff1667ffffffffffffffff168152602001935050505060405180910390a15050505050505050565b8060008060007001000000000000000000000000000000000260016000856fffffffffffffffffffffffffffffffff19166fffffffffffffffffffffffffffffffff1916815260200190815260200160002060000160009054906101000a9004700100000000000000000000000000000000026fffffffffffffffffffffffffffffffff191614151515610a9c57600080fd5b60009150600090505b60016000846fffffffffffffffffffffffffffffffff19166fffffffffffffffffffffffffffffffff1916815260200190815260200160002060020180549050811015610ba5573373ffffffffffffffffffffffffffffffffffffffff1660016000856fffffffffffffffffffffffffffffffff19166fffffffffffffffffffffffffffffffff1916815260200190815260200160002060020182815481101515610b4c57fe5b9060005260206000200160009054906101000a900473ffffffffffffffffffffffffffffffffffffffff1673ffffffffffffffffffffffffffffffffffffffff161415610b9857600191505b8080600101915050610aa5565b8180610c3857503373ffffffffffffffffffffffffffffffffffffffff1660016000856fffffffffffffffffffffffffffffffff19166fffffffffffffffffffffffffffffffff1916815260200190815260200160002060030160009054906101000a900473ffffffffffffffffffffffffffffffffffffffff1673ffffffffffffffffffffffffffffffffffffffff16145b1515610c4357600080fd5b6001806000866fffffffffffffffffffffffffffffffff19166fffffffffffffffffffffffffffffffff1916815260200190815260200160002060070160009054906101000a900460ff1660ff16141515610c9d57600080fd5b4360016000866fffffffffffffffffffffffffffffffff19166fffffffffffffffffffffffffffffffff19168152602001908152602001600020600601541015610e3957600360016000866fffffffffffffffffffffffffffffffff19166fffffffffffffffffffffffffffffffff1916815260200190815260200160002060070160006101000a81548160ff021916908360ff16021790555060016000856fffffffffffffffffffffffffffffffff19166fffffffffffffffffffffffffffffffff1916815260200190815260200160002060050160009054906101000a900473ffffffffffffffffffffffffffffffffffffffff1673ffffffffffffffffffffffffffffffffffffffff166108fc60016000876fffffffffffffffffffffffffffffffff19166fffffffffffffffffffffffffffffffff1916815260200190815260200160002060010160009054906101000a900467ffffffffffffffff1667ffffffffffffffff169081150290604051600060405180830381858888f19350505050158015610e33573d6000803e3d6000fd5b5061101e565b60016000856fffffffffffffffffffffffffffffffff19166fffffffffffffffffffffffffffffffff1916815260200190815260200160002060030160009054906101000a900473ffffffffffffffffffffffffffffffffffffffff1673ffffffffffffffffffffffffffffffffffffffff163373ffffffffffffffffffffffffffffffffffffffff16141561101d5760016000856fffffffffffffffffffffffffffffffff19166fffffffffffffffffffffffffffffffff1916815260200190815260200160002060040160009054906101000a900473ffffffffffffffffffffffffffffffffffffffff1673ffffffffffffffffffffffffffffffffffffffff166108fc60016000876fffffffffffffffffffffffffffffffff19166fffffffffffffffffffffffffffffffff1916815260200190815260200160002060010160009054906101000a900467ffffffffffffffff1667ffffffffffffffff169081150290604051600060405180830381858888f19350505050158015610fc5573d6000803e3d6000fd5b50600260016000866fffffffffffffffffffffffffffffffff19166fffffffffffffffffffffffffffffffff1916815260200190815260200160002060070160006101000a81548160ff021916908360ff1602179055505b5b50505050565b6000809054906101000a900473ffffffffffffffffffffffffffffffffffffffff1673ffffffffffffffffffffffffffffffffffffffff163373ffffffffffffffffffffffffffffffffffffffff1614151561107f57600080fd5b6000809054906101000a900473ffffffffffffffffffffffffffffffffffffffff1673ffffffffffffffffffffffffffffffffffffffff167ff8df31144d9c2f0f6b59d69b8b98abd5459d07f2742c4df920b25aae33c6482060405160405180910390a260008060006101000a81548173ffffffffffffffffffffffffffffffffffffffff021916908373ffffffffffffffffffffffffffffffffffffffff160217905550565b6000809054906101000a900473ffffffffffffffffffffffffffffffffffffffff1681565b8060007001000000000000000000000000000000000260016000836fffffffffffffffffffffffffffffffff19166fffffffffffffffffffffffffffffffff1916815260200190815260200160002060000160009054906101000a9004700100000000000000000000000000000000026fffffffffffffffffffffffffffffffff1916141515156111db57600080fd5b3373ffffffffffffffffffffffffffffffffffffffff1660016000836fffffffffffffffffffffffffffffffff19166fffffffffffffffffffffffffffffffff1916815260200190815260200160002060030160009054906101000a900473ffffffffffffffffffffffffffffffffffffffff1673ffffffffffffffffffffffffffffffffffffffff1614151561127157600080fd5b61127a82610a09565b5050565b8060008060007001000000000000000000000000000000000260016000856fffffffffffffffffffffffffffffffff19166fffffffffffffffffffffffffffffffff1916815260200190815260200160002060000160009054906101000a9004700100000000000000000000000000000000026fffffffffffffffffffffffffffffffff19161415151561131157600080fd5b60009150600090505b60016000846fffffffffffffffffffffffffffffffff19166fffffffffffffffffffffffffffffffff191681526020019081526020016000206002018054905081101561141a573373ffffffffffffffffffffffffffffffffffffffff1660016000856fffffffffffffffffffffffffffffffff19166fffffffffffffffffffffffffffffffff19168152602001908152602001600020600201828154811015156113c157fe5b9060005260206000200160009054906101000a900473ffffffffffffffffffffffffffffffffffffffff1673ffffffffffffffffffffffffffffffffffffffff16141561140d57600191505b808060010191505061131a565b81806114ad57503373ffffffffffffffffffffffffffffffffffffffff1660016000856fffffffffffffffffffffffffffffffff19166fffffffffffffffffffffffffffffffff1916815260200190815260200160002060030160009054906101000a900473ffffffffffffffffffffffffffffffffffffffff1673ffffffffffffffffffffffffffffffffffffffff16145b15156114b857600080fd5b4360016000866fffffffffffffffffffffffffffffffff19166fffffffffffffffffffffffffffffffff1916815260200190815260200160002060060154101561165057600360016000866fffffffffffffffffffffffffffffffff19166fffffffffffffffffffffffffffffffff1916815260200190815260200160002060070160006101000a81548160ff021916908360ff16021790555060016000856fffffffffffffffffffffffffffffffff19166fffffffffffffffffffffffffffffffff1916815260200190815260200160002060050160009054906101000a900473ffffffffffffffffffffffffffffffffffffffff1673ffffffffffffffffffffffffffffffffffffffff166108fc60016000876fffffffffffffffffffffffffffffffff19166fffffffffffffffffffffffffffffffff1916815260200190815260200160002060010160009054906101000a900467ffffffffffffffff1667ffffffffffffffff169081150290604051600060405180830381858888f1935050505015801561164e573d6000803e3d6000fd5b505b50505050565b60016020528060005260406000206000915090508060000160009054906101000a900470010000000000000000000000000000000002908060000160109054906101000a900470010000000000000000000000000000000002908060010160009054906101000a900467ffffffffffffffff16908060030160009054906101000a900473ffffffffffffffffffffffffffffffffffffffff16908060040160009054906101000a900473ffffffffffffffffffffffffffffffffffffffff16908060050160009054906101000a900473ffffffffffffffffffffffffffffffffffffffff16908060060154908060070160009054906101000a900460ff16905088565b6000809054906101000a900473ffffffffffffffffffffffffffffffffffffffff1673ffffffffffffffffffffffffffffffffffffffff163373ffffffffffffffffffffffffffffffffffffffff161415156117b457600080fd5b6117bd816117c0565b50565b600073ffffffffffffffffffffffffffffffffffffffff168173ffffffffffffffffffffffffffffffffffffffff16141515156117fc57600080fd5b8073ffffffffffffffffffffffffffffffffffffffff166000809054906101000a900473ffffffffffffffffffffffffffffffffffffffff1673ffffffffffffffffffffffffffffffffffffffff167f8be0079c531659141344cd1fd0a4f28419497f9722a3daafe3b4186f6b6457e060405160405180910390a3806000806101000a81548173ffffffffffffffffffffffffffffffffffffffff021916908373ffffffffffffffffffffffffffffffffffffffff16021790555050565b828054828255906000526020600020908101928215611933579160200282015b828111156119325782518260006101000a81548173ffffffffffffffffffffffffffffffffffffffff021916908373ffffffffffffffffffffffffffffffffffffffff160217905550916020019190600101906118da565b5b5090506119409190611944565b5090565b61198491905b8082111561198057600081816101000a81549073ffffffffffffffffffffffffffffffffffffffff02191690555060010161194a565b5090565b905600a165627a7a7230582062e318635dba1781e1fb02249a58a4f28c3d23f3a54ce9730193896e901aa8730029",
  "source": "pragma solidity ^0.4.24;\n\nimport 'openzeppelin-solidity/contracts/ownership/Ownable.sol';\n\ncontract Welandam is Ownable {\n\n  mapping(bytes16 => Order) public orders;\n\tevent OrderRecorded(bytes16 id, bytes16 itemId, uint64 amount);\n\n  constructor() public {\n    owner = msg.sender;\n  }\n\n  struct Order {\n    bytes16 id;\n    bytes16 itemId;\n    // amount payable in ether\n    uint64 amount;\n    // TODO decide on exactly how we can handle any number of relayers while also encouraging\n    // all the network participants to relay everyone elses orders\n    // TODO This is a key problem that differentiates welandam from 0x since in 0x, in order to share liquidity for exchange orders there is a natural incentive for relayers to share maker orders\n    address[] relayers;\n    address shipper;\n    address merchant;\n    address customer;\n    uint256 expirationBlock;\n    uint8 status; // 1:Requested, 2:Delivered, 3: Expired\n  }\n\n  modifier allowedToConfirm(bytes16 _id) {\n    require(orders[_id].id != 0x0);\n    require(orders[_id].shipper == msg.sender);\n    _;\n  }\n\n  modifier allowedToUnlock(bytes16 _id) {\n    require(orders[_id].id != 0x0);\n    bool foundRelayer = false;\n    for (uint i = 0; i < orders[_id].relayers.length; i++) {\n      if (orders[_id].relayers[i] == msg.sender) {\n        foundRelayer = true;\n      }\n    }\n    require(foundRelayer || orders[_id].shipper == msg.sender);\n    _;\n  }\n\n  function getRelayersPerOrderId(bytes16 _id) public view returns (address[]) {\n    return orders[_id].relayers;\n  }\n\n  function recordOrder(bytes16 _id, bytes16 _itemId, uint64 _amount, address[] _relayers, address _shipper, address _merchant, address _customer, uint256 _maxBlocks) public payable {\n    require(orders[_id].id == 0x0);\n    require(_amount == msg.value);\n    orders[_id] = Order(_id, _itemId, _amount, _relayers, _shipper, _merchant, _customer, block.number + _maxBlocks, 1);\n\t\temit OrderRecorded(_id, _itemId, _amount);\n  }\n\n  function confirmOrder(bytes16 _id) public allowedToConfirm(_id) {\n    unlockFundsForOrder(_id);\n  }\n\n  function unlockFundsForOrder(bytes16 _id) public allowedToUnlock(_id) {\n    require(orders[_id].status == 1);\n    if (orders[_id].expirationBlock < block.number) {\n      orders[_id].status = 3;\n      orders[_id].customer.transfer(orders[_id].amount);\n    } else if (msg.sender == orders[_id].shipper) {\n      orders[_id].merchant.transfer(orders[_id].amount);\n      orders[_id].status = 2;\n    }\n  }\n\n  function checkLockedOrder(bytes16 _id) public allowedToUnlock(_id) {\n    if (orders[_id].expirationBlock < block.number) {\n      orders[_id].status = 3;\n      orders[_id].customer.transfer(orders[_id].amount);\n    }\n  }\n\n\n}\n",
  "sourcePath": "/Users/vimukthi/projects/welandam/cezerin/contracts/Welandam.sol",
  "compiler": {
    "name": "solc",
    "version": "0.4.24+commit.e67f0147.Emscripten.clang"
  },
  "schemaVersion": "2.0.1",
  "updatedAt": "2018-09-08T18:00:50.559Z"
}