{
  "contractName": "Welandam",
  "abi": [
    {
      "constant": false,
      "inputs": [],
      "name": "renounceOwnership",
      "outputs": [],
      "payable": false,
      "stateMutability": "nonpayable",
      "type": "function"
    },
    {
      "constant": true,
      "inputs": [],
      "name": "owner",
      "outputs": [
        {
          "name": "",
          "type": "address"
        }
      ],
      "payable": false,
      "stateMutability": "view",
      "type": "function"
    },
    {
      "constant": true,
      "inputs": [
        {
          "name": "",
          "type": "bytes16"
        }
      ],
      "name": "orders",
      "outputs": [
        {
          "name": "id",
          "type": "bytes16"
        },
        {
          "name": "itemId",
          "type": "bytes16"
        },
        {
          "name": "amount",
          "type": "uint64"
        },
        {
          "name": "amountEther",
          "type": "uint256"
        },
        {
          "name": "shipper",
          "type": "address"
        },
        {
          "name": "merchant",
          "type": "address"
        },
        {
          "name": "customer",
          "type": "address"
        },
        {
          "name": "expirationBlock",
          "type": "uint256"
        },
        {
          "name": "status",
          "type": "uint8"
        }
      ],
      "payable": false,
      "stateMutability": "view",
      "type": "function"
    },
    {
      "constant": false,
      "inputs": [
        {
          "name": "_newOwner",
          "type": "address"
        }
      ],
      "name": "transferOwnership",
      "outputs": [],
      "payable": false,
      "stateMutability": "nonpayable",
      "type": "function"
    },
    {
      "inputs": [],
      "payable": false,
      "stateMutability": "nonpayable",
      "type": "constructor"
    },
    {
      "anonymous": false,
      "inputs": [
        {
          "indexed": true,
          "name": "id",
          "type": "bytes16"
        },
        {
          "indexed": true,
          "name": "itemId",
          "type": "bytes16"
        },
        {
          "indexed": false,
          "name": "amount",
          "type": "uint64"
        }
      ],
      "name": "OrderRecorded",
      "type": "event"
    },
    {
      "anonymous": false,
      "inputs": [
        {
          "indexed": true,
          "name": "id",
          "type": "bytes16"
        },
        {
          "indexed": true,
          "name": "itemId",
          "type": "bytes16"
        },
        {
          "indexed": false,
          "name": "by",
          "type": "address"
        }
      ],
      "name": "OrderConfirmed",
      "type": "event"
    },
    {
      "anonymous": false,
      "inputs": [
        {
          "indexed": true,
          "name": "id",
          "type": "bytes16"
        },
        {
          "indexed": true,
          "name": "itemId",
          "type": "bytes16"
        }
      ],
      "name": "OrderExpired",
      "type": "event"
    },
    {
      "anonymous": false,
      "inputs": [
        {
          "indexed": true,
          "name": "previousOwner",
          "type": "address"
        }
      ],
      "name": "OwnershipRenounced",
      "type": "event"
    },
    {
      "anonymous": false,
      "inputs": [
        {
          "indexed": true,
          "name": "previousOwner",
          "type": "address"
        },
        {
          "indexed": true,
          "name": "newOwner",
          "type": "address"
        }
      ],
      "name": "OwnershipTransferred",
      "type": "event"
    },
    {
      "constant": true,
      "inputs": [
        {
          "name": "_id",
          "type": "bytes16"
        }
      ],
      "name": "getRelayersPerOrderId",
      "outputs": [
        {
          "name": "",
          "type": "address[]"
        }
      ],
      "payable": false,
      "stateMutability": "view",
      "type": "function"
    },
    {
      "constant": false,
      "inputs": [
        {
          "name": "_id",
          "type": "bytes16"
        },
        {
          "name": "_itemId",
          "type": "bytes16"
        },
        {
          "name": "_amount",
          "type": "uint64"
        },
        {
          "name": "_amountEther",
          "type": "uint256"
        },
        {
          "name": "_relayers",
          "type": "address[]"
        },
        {
          "name": "_shipper",
          "type": "address"
        },
        {
          "name": "_merchant",
          "type": "address"
        },
        {
          "name": "_customer",
          "type": "address"
        },
        {
          "name": "_maxBlocks",
          "type": "uint256"
        }
      ],
      "name": "recordOrder",
      "outputs": [],
      "payable": true,
      "stateMutability": "payable",
      "type": "function"
    },
    {
      "constant": false,
      "inputs": [
        {
          "name": "_id",
          "type": "bytes16"
        }
      ],
      "name": "confirmOrder",
      "outputs": [],
      "payable": false,
      "stateMutability": "nonpayable",
      "type": "function"
    },
    {
      "constant": false,
      "inputs": [
        {
          "name": "_id",
          "type": "bytes16"
        }
      ],
      "name": "unlockFundsForOrder",
      "outputs": [],
      "payable": false,
      "stateMutability": "nonpayable",
      "type": "function"
    },
    {
      "constant": false,
      "inputs": [
        {
          "name": "_id",
          "type": "bytes16"
        }
      ],
      "name": "checkLockedOrder",
      "outputs": [],
      "payable": false,
      "stateMutability": "nonpayable",
      "type": "function"
    }
  ],
  "bytecode": "0x608060405234801561001057600080fd5b50336000806101000a81548173ffffffffffffffffffffffffffffffffffffffff021916908373ffffffffffffffffffffffffffffffffffffffff160217905550336000806101000a81548173ffffffffffffffffffffffffffffffffffffffff021916908373ffffffffffffffffffffffffffffffffffffffff160217905550611bde806100a06000396000f300608060405260043610610099576000357c0100000000000000000000000000000000000000000000000000000000900463ffffffff16806302e7d06a1461009e578063547e1e3d14610133578063715018a6146101735780638da5cb5b1461018a578063ab27d755146101e1578063bf4d801a14610221578063c5c7312414610261578063cbf9ac78146103d7578063f2fde38b146104f2575b600080fd5b3480156100aa57600080fd5b506100dc60048036038101908080356fffffffffffffffffffffffffffffffff19169060200190929190505050610535565b6040518080602001828103825283818151815260200191508051906020019060200280838360005b8381101561011f578082015181840152602081019050610104565b505050509050019250505060405180910390f35b34801561013f57600080fd5b5061017160048036038101908080356fffffffffffffffffffffffffffffffff191690602001909291905050506105ff565b005b34801561017f57600080fd5b50610188610dcb565b005b34801561019657600080fd5b5061019f610ecd565b604051808273ffffffffffffffffffffffffffffffffffffffff1673ffffffffffffffffffffffffffffffffffffffff16815260200191505060405180910390f35b3480156101ed57600080fd5b5061021f60048036038101908080356fffffffffffffffffffffffffffffffff19169060200190929190505050610ef2565b005b34801561022d57600080fd5b5061025f60048036038101908080356fffffffffffffffffffffffffffffffff19169060200190929190505050611025565b005b34801561026d57600080fd5b5061029f60048036038101908080356fffffffffffffffffffffffffffffffff1916906020019092919050505061148c565b604051808a6fffffffffffffffffffffffffffffffff19166fffffffffffffffffffffffffffffffff19168152602001896fffffffffffffffffffffffffffffffff19166fffffffffffffffffffffffffffffffff191681526020018867ffffffffffffffff1667ffffffffffffffff1681526020018781526020018673ffffffffffffffffffffffffffffffffffffffff1673ffffffffffffffffffffffffffffffffffffffff1681526020018573ffffffffffffffffffffffffffffffffffffffff1673ffffffffffffffffffffffffffffffffffffffff1681526020018473ffffffffffffffffffffffffffffffffffffffff1673ffffffffffffffffffffffffffffffffffffffff1681526020018381526020018260ff1660ff168152602001995050505050505050505060405180910390f35b6104f060048036038101908080356fffffffffffffffffffffffffffffffff1916906020019092919080356fffffffffffffffffffffffffffffffff19169060200190929190803567ffffffffffffffff1690602001909291908035906020019092919080359060200190820180359060200190808060200260200160405190810160405280939291908181526020018383602002808284378201915050505050509192919290803573ffffffffffffffffffffffffffffffffffffffff169060200190929190803573ffffffffffffffffffffffffffffffffffffffff169060200190929190803573ffffffffffffffffffffffffffffffffffffffff16906020019092919080359060200190929190505050611595565b005b3480156104fe57600080fd5b50610533600480360381019080803573ffffffffffffffffffffffffffffffffffffffff169060200190929190505050611984565b005b606060016000836fffffffffffffffffffffffffffffffff19166fffffffffffffffffffffffffffffffff191681526020019081526020016000206003018054806020026020016040519081016040528092919081815260200182805480156105f357602002820191906000526020600020905b8160009054906101000a900473ffffffffffffffffffffffffffffffffffffffff1673ffffffffffffffffffffffffffffffffffffffff16815260200190600101908083116105a9575b50505050509050919050565b8060008060007001000000000000000000000000000000000260016000856fffffffffffffffffffffffffffffffff19166fffffffffffffffffffffffffffffffff1916815260200190815260200160002060000160009054906101000a9004700100000000000000000000000000000000026fffffffffffffffffffffffffffffffff19161415151561069257600080fd5b60009150600090505b60016000846fffffffffffffffffffffffffffffffff19166fffffffffffffffffffffffffffffffff191681526020019081526020016000206003018054905081101561079b573373ffffffffffffffffffffffffffffffffffffffff1660016000856fffffffffffffffffffffffffffffffff19166fffffffffffffffffffffffffffffffff191681526020019081526020016000206003018281548110151561074257fe5b9060005260206000200160009054906101000a900473ffffffffffffffffffffffffffffffffffffffff1673ffffffffffffffffffffffffffffffffffffffff16141561078e57600191505b808060010191505061069b565b818061082e57503373ffffffffffffffffffffffffffffffffffffffff1660016000856fffffffffffffffffffffffffffffffff19166fffffffffffffffffffffffffffffffff1916815260200190815260200160002060040160009054906101000a900473ffffffffffffffffffffffffffffffffffffffff1673ffffffffffffffffffffffffffffffffffffffff16145b151561083957600080fd5b6001806000866fffffffffffffffffffffffffffffffff19166fffffffffffffffffffffffffffffffff1916815260200190815260200160002060080160009054906101000a900460ff1660ff1614151561089357600080fd5b4360016000866fffffffffffffffffffffffffffffffff19166fffffffffffffffffffffffffffffffff19168152602001908152602001600020600701541015610abe57600360016000866fffffffffffffffffffffffffffffffff19166fffffffffffffffffffffffffffffffff1916815260200190815260200160002060080160006101000a81548160ff021916908360ff16021790555060016000856fffffffffffffffffffffffffffffffff19166fffffffffffffffffffffffffffffffff1916815260200190815260200160002060060160009054906101000a900473ffffffffffffffffffffffffffffffffffffffff1673ffffffffffffffffffffffffffffffffffffffff166108fc60016000876fffffffffffffffffffffffffffffffff19166fffffffffffffffffffffffffffffffff19168152602001908152602001600020600201549081150290604051600060405180830381858888f19350505050158015610a0b573d6000803e3d6000fd5b5060016000856fffffffffffffffffffffffffffffffff19166fffffffffffffffffffffffffffffffff1916815260200190815260200160002060000160109054906101000a9004700100000000000000000000000000000000026fffffffffffffffffffffffffffffffff1916846fffffffffffffffffffffffffffffffff19167f39ad67c6dbdc31c4263296cccdc185784d6701d3724a622abb3cebdf00391c7060405160405180910390a3610dc5565b60016000856fffffffffffffffffffffffffffffffff19166fffffffffffffffffffffffffffffffff1916815260200190815260200160002060040160009054906101000a900473ffffffffffffffffffffffffffffffffffffffff1673ffffffffffffffffffffffffffffffffffffffff163373ffffffffffffffffffffffffffffffffffffffff161415610dc45760016000856fffffffffffffffffffffffffffffffff19166fffffffffffffffffffffffffffffffff1916815260200190815260200160002060050160009054906101000a900473ffffffffffffffffffffffffffffffffffffffff1673ffffffffffffffffffffffffffffffffffffffff166108fc60016000876fffffffffffffffffffffffffffffffff19166fffffffffffffffffffffffffffffffff19168152602001908152602001600020600201549081150290604051600060405180830381858888f19350505050158015610c2c573d6000803e3d6000fd5b50600260016000866fffffffffffffffffffffffffffffffff19166fffffffffffffffffffffffffffffffff1916815260200190815260200160002060080160006101000a81548160ff021916908360ff16021790555060016000856fffffffffffffffffffffffffffffffff19166fffffffffffffffffffffffffffffffff1916815260200190815260200160002060000160109054906101000a9004700100000000000000000000000000000000026fffffffffffffffffffffffffffffffff1916846fffffffffffffffffffffffffffffffff19167fe04e415fc3eedb84aafe6592846bef842d20c9b1b9adf8a06a12364f984ff48d60016000886fffffffffffffffffffffffffffffffff19166fffffffffffffffffffffffffffffffff1916815260200190815260200160002060040160009054906101000a900473ffffffffffffffffffffffffffffffffffffffff16604051808273ffffffffffffffffffffffffffffffffffffffff1673ffffffffffffffffffffffffffffffffffffffff16815260200191505060405180910390a35b5b50505050565b6000809054906101000a900473ffffffffffffffffffffffffffffffffffffffff1673ffffffffffffffffffffffffffffffffffffffff163373ffffffffffffffffffffffffffffffffffffffff16141515610e2657600080fd5b6000809054906101000a900473ffffffffffffffffffffffffffffffffffffffff1673ffffffffffffffffffffffffffffffffffffffff167ff8df31144d9c2f0f6b59d69b8b98abd5459d07f2742c4df920b25aae33c6482060405160405180910390a260008060006101000a81548173ffffffffffffffffffffffffffffffffffffffff021916908373ffffffffffffffffffffffffffffffffffffffff160217905550565b6000809054906101000a900473ffffffffffffffffffffffffffffffffffffffff1681565b8060007001000000000000000000000000000000000260016000836fffffffffffffffffffffffffffffffff19166fffffffffffffffffffffffffffffffff1916815260200190815260200160002060000160009054906101000a9004700100000000000000000000000000000000026fffffffffffffffffffffffffffffffff191614151515610f8257600080fd5b3373ffffffffffffffffffffffffffffffffffffffff1660016000836fffffffffffffffffffffffffffffffff19166fffffffffffffffffffffffffffffffff1916815260200190815260200160002060040160009054906101000a900473ffffffffffffffffffffffffffffffffffffffff1673ffffffffffffffffffffffffffffffffffffffff1614151561101857600080fd5b611021826105ff565b5050565b8060008060007001000000000000000000000000000000000260016000856fffffffffffffffffffffffffffffffff19166fffffffffffffffffffffffffffffffff1916815260200190815260200160002060000160009054906101000a9004700100000000000000000000000000000000026fffffffffffffffffffffffffffffffff1916141515156110b857600080fd5b60009150600090505b60016000846fffffffffffffffffffffffffffffffff19166fffffffffffffffffffffffffffffffff19168152602001908152602001600020600301805490508110156111c1573373ffffffffffffffffffffffffffffffffffffffff1660016000856fffffffffffffffffffffffffffffffff19166fffffffffffffffffffffffffffffffff191681526020019081526020016000206003018281548110151561116857fe5b9060005260206000200160009054906101000a900473ffffffffffffffffffffffffffffffffffffffff1673ffffffffffffffffffffffffffffffffffffffff1614156111b457600191505b80806001019150506110c1565b818061125457503373ffffffffffffffffffffffffffffffffffffffff1660016000856fffffffffffffffffffffffffffffffff19166fffffffffffffffffffffffffffffffff1916815260200190815260200160002060040160009054906101000a900473ffffffffffffffffffffffffffffffffffffffff1673ffffffffffffffffffffffffffffffffffffffff16145b151561125f57600080fd5b4360016000866fffffffffffffffffffffffffffffffff19166fffffffffffffffffffffffffffffffff1916815260200190815260200160002060070154101561148657600360016000866fffffffffffffffffffffffffffffffff19166fffffffffffffffffffffffffffffffff1916815260200190815260200160002060080160006101000a81548160ff021916908360ff16021790555060016000856fffffffffffffffffffffffffffffffff19166fffffffffffffffffffffffffffffffff1916815260200190815260200160002060060160009054906101000a900473ffffffffffffffffffffffffffffffffffffffff1673ffffffffffffffffffffffffffffffffffffffff166108fc60016000876fffffffffffffffffffffffffffffffff19166fffffffffffffffffffffffffffffffff19168152602001908152602001600020600201549081150290604051600060405180830381858888f193505050501580156113d7573d6000803e3d6000fd5b5060016000856fffffffffffffffffffffffffffffffff19166fffffffffffffffffffffffffffffffff1916815260200190815260200160002060000160109054906101000a9004700100000000000000000000000000000000026fffffffffffffffffffffffffffffffff1916846fffffffffffffffffffffffffffffffff19167f39ad67c6dbdc31c4263296cccdc185784d6701d3724a622abb3cebdf00391c7060405160405180910390a35b50505050565b60016020528060005260406000206000915090508060000160009054906101000a900470010000000000000000000000000000000002908060000160109054906101000a900470010000000000000000000000000000000002908060010160009054906101000a900467ffffffffffffffff16908060020154908060040160009054906101000a900473ffffffffffffffffffffffffffffffffffffffff16908060050160009054906101000a900473ffffffffffffffffffffffffffffffffffffffff16908060060160009054906101000a900473ffffffffffffffffffffffffffffffffffffffff16908060070154908060080160009054906101000a900460ff16905089565b600070010000000000000000000000000000000002600160008b6fffffffffffffffffffffffffffffffff19166fffffffffffffffffffffffffffffffff1916815260200190815260200160002060000160009054906101000a9004700100000000000000000000000000000000026fffffffffffffffffffffffffffffffff191614151561162357600080fd5b348614151561163157600080fd5b610140604051908101604052808a6fffffffffffffffffffffffffffffffff19168152602001896fffffffffffffffffffffffffffffffff191681526020018867ffffffffffffffff1681526020018781526020018681526020018573ffffffffffffffffffffffffffffffffffffffff1681526020018473ffffffffffffffffffffffffffffffffffffffff1681526020018373ffffffffffffffffffffffffffffffffffffffff1681526020018243018152602001600160ff16815250600160008b6fffffffffffffffffffffffffffffffff19166fffffffffffffffffffffffffffffffff1916815260200190815260200160002060008201518160000160006101000a8154816fffffffffffffffffffffffffffffffff02191690837001000000000000000000000000000000009004021790555060208201518160000160106101000a8154816fffffffffffffffffffffffffffffffff02191690837001000000000000000000000000000000009004021790555060408201518160010160006101000a81548167ffffffffffffffff021916908367ffffffffffffffff160217905550606082015181600201556080820151816003019080519060200190611800929190611ae5565b5060a08201518160040160006101000a81548173ffffffffffffffffffffffffffffffffffffffff021916908373ffffffffffffffffffffffffffffffffffffffff16021790555060c08201518160050160006101000a81548173ffffffffffffffffffffffffffffffffffffffff021916908373ffffffffffffffffffffffffffffffffffffffff16021790555060e08201518160060160006101000a81548173ffffffffffffffffffffffffffffffffffffffff021916908373ffffffffffffffffffffffffffffffffffffffff16021790555061010082015181600701556101208201518160080160006101000a81548160ff021916908360ff160217905550905050876fffffffffffffffffffffffffffffffff1916896fffffffffffffffffffffffffffffffff19167fe30266b01cfd3418859f2d2f8b6831c9745e84f8734eba3e8092fbee2b8bfd9689604051808267ffffffffffffffff1667ffffffffffffffff16815260200191505060405180910390a3505050505050505050565b6000809054906101000a900473ffffffffffffffffffffffffffffffffffffffff1673ffffffffffffffffffffffffffffffffffffffff163373ffffffffffffffffffffffffffffffffffffffff161415156119df57600080fd5b6119e8816119eb565b50565b600073ffffffffffffffffffffffffffffffffffffffff168173ffffffffffffffffffffffffffffffffffffffff1614151515611a2757600080fd5b8073ffffffffffffffffffffffffffffffffffffffff166000809054906101000a900473ffffffffffffffffffffffffffffffffffffffff1673ffffffffffffffffffffffffffffffffffffffff167f8be0079c531659141344cd1fd0a4f28419497f9722a3daafe3b4186f6b6457e060405160405180910390a3806000806101000a81548173ffffffffffffffffffffffffffffffffffffffff021916908373ffffffffffffffffffffffffffffffffffffffff16021790555050565b828054828255906000526020600020908101928215611b5e579160200282015b82811115611b5d5782518260006101000a81548173ffffffffffffffffffffffffffffffffffffffff021916908373ffffffffffffffffffffffffffffffffffffffff16021790555091602001919060010190611b05565b5b509050611b6b9190611b6f565b5090565b611baf91905b80821115611bab57600081816101000a81549073ffffffffffffffffffffffffffffffffffffffff021916905550600101611b75565b5090565b905600a165627a7a72305820c48957e1f3b8241232dd332f9572ae3e517f3679470076e65d37b60f245467c10029",
  "source": "pragma solidity ^0.4.24;\n\nimport 'openzeppelin-solidity/contracts/ownership/Ownable.sol';\n\ncontract Welandam is Ownable {\n\n  event OrderRecorded(bytes16 indexed id, bytes16 indexed itemId, uint64 amount);\n  event OrderConfirmed(bytes16 indexed id, bytes16 indexed itemId, address by);\n  event OrderExpired(bytes16 indexed id, bytes16 indexed itemId);\n\n  mapping(bytes16 => Order) public orders;\n\n  constructor() public {\n    owner = msg.sender;\n  }\n\n  struct Order {\n    bytes16 id;\n    bytes16 itemId;\n    // original amount in USD\n\t\tuint64 amount;\n    // amount payable in ether\n\t\tuint256 amountEther;\n    // TODO decide on exactly how we can handle any number of relayers while also encouraging\n    // all the network participants to relay everyone elses orders\n    // TODO This is a key problem that differentiates welandam from 0x since in 0x, in order to share liquidity for exchange orders there is a natural incentive for relayers to share maker orders\n    address[] relayers;\n    address shipper;\n    address merchant;\n    address customer;\n    uint256 expirationBlock;\n    uint8 status; // 1:Requested, 2:Delivered, 3: Expired\n  }\n\n  modifier allowedToConfirm(bytes16 _id) {\n    require(orders[_id].id != 0x0);\n    require(orders[_id].shipper == msg.sender);\n    _;\n  }\n\n  modifier allowedToUnlock(bytes16 _id) {\n    require(orders[_id].id != 0x0);\n    bool foundRelayer = false;\n    for (uint i = 0; i < orders[_id].relayers.length; i++) {\n      if (orders[_id].relayers[i] == msg.sender) {\n        foundRelayer = true;\n      }\n    }\n    require(foundRelayer || orders[_id].shipper == msg.sender);\n    _;\n  }\n\n  function getRelayersPerOrderId(bytes16 _id) public view returns (address[]) {\n    return orders[_id].relayers;\n  }\n\n  function recordOrder(bytes16 _id, bytes16 _itemId, uint64 _amount, uint256 _amountEther, address[] _relayers, address _shipper, address _merchant, address _customer, uint256 _maxBlocks) public payable {\n    require(orders[_id].id == 0x0);\n    require(_amountEther == msg.value);\n    orders[_id] = Order(_id, _itemId, _amount, _amountEther, _relayers, _shipper, _merchant, _customer, block.number + _maxBlocks, 1);\n\t\temit OrderRecorded(_id, _itemId, _amount);\n  }\n\n  function confirmOrder(bytes16 _id) public allowedToConfirm(_id) {\n    unlockFundsForOrder(_id);\n  }\n\n  function unlockFundsForOrder(bytes16 _id) public allowedToUnlock(_id) {\n    require(orders[_id].status == 1);\n    if (orders[_id].expirationBlock < block.number) {\n      orders[_id].status = 3;\n      orders[_id].customer.transfer(orders[_id].amountEther);\n\t\t\temit OrderExpired(_id, orders[_id].itemId);\n    } else if (msg.sender == orders[_id].shipper) {\n      orders[_id].merchant.transfer(orders[_id].amountEther);\n      orders[_id].status = 2;\n\t\t\temit OrderConfirmed(_id, orders[_id].itemId, orders[_id].shipper);\n    }\n  }\n\n  function checkLockedOrder(bytes16 _id) public allowedToUnlock(_id) {\n    if (orders[_id].expirationBlock < block.number) {\n      orders[_id].status = 3;\n      orders[_id].customer.transfer(orders[_id].amountEther);\n\t\t\temit OrderExpired(_id, orders[_id].itemId);\n    }\n  }\n\n\n}\n",
  "sourcePath": "/Users/vimukthi/projects/welandam/cezerin/contracts/Welandam.sol",
  "compiler": {
    "name": "solc",
    "version": "0.4.24+commit.e67f0147.Emscripten.clang"
  },
  "schemaVersion": "2.0.1",
  "updatedAt": "2018-09-08T22:22:38.771Z"
}